{
  "address": "0xDA984B8cAccA92cBC1D1255f951A74a72DC177F6",
  "abi": [
    {
      "inputs": [],
      "stateMutability": "nonpayable",
      "type": "constructor"
    },
    {
      "anonymous": false,
      "inputs": [
        {
          "indexed": true,
          "internalType": "address",
          "name": "owner",
          "type": "address"
        },
        {
          "indexed": true,
          "internalType": "address",
          "name": "approved",
          "type": "address"
        },
        {
          "indexed": true,
          "internalType": "uint256",
          "name": "tokenId",
          "type": "uint256"
        }
      ],
      "name": "Approval",
      "type": "event"
    },
    {
      "anonymous": false,
      "inputs": [
        {
          "indexed": true,
          "internalType": "address",
          "name": "owner",
          "type": "address"
        },
        {
          "indexed": true,
          "internalType": "address",
          "name": "operator",
          "type": "address"
        },
        {
          "indexed": false,
          "internalType": "bool",
          "name": "approved",
          "type": "bool"
        }
      ],
      "name": "ApprovalForAll",
      "type": "event"
    },
    {
      "anonymous": false,
      "inputs": [
        {
          "indexed": true,
          "internalType": "address",
          "name": "previousOwner",
          "type": "address"
        },
        {
          "indexed": true,
          "internalType": "address",
          "name": "newOwner",
          "type": "address"
        }
      ],
      "name": "OwnershipTransferred",
      "type": "event"
    },
    {
      "anonymous": false,
      "inputs": [
        {
          "indexed": true,
          "internalType": "address",
          "name": "from",
          "type": "address"
        },
        {
          "indexed": true,
          "internalType": "address",
          "name": "to",
          "type": "address"
        },
        {
          "indexed": true,
          "internalType": "uint256",
          "name": "tokenId",
          "type": "uint256"
        }
      ],
      "name": "Transfer",
      "type": "event"
    },
    {
      "inputs": [
        {
          "internalType": "address",
          "name": "to",
          "type": "address"
        },
        {
          "internalType": "uint256",
          "name": "tokenId",
          "type": "uint256"
        }
      ],
      "name": "approve",
      "outputs": [],
      "stateMutability": "nonpayable",
      "type": "function"
    },
    {
      "inputs": [
        {
          "internalType": "address",
          "name": "owner",
          "type": "address"
        }
      ],
      "name": "balanceOf",
      "outputs": [
        {
          "internalType": "uint256",
          "name": "",
          "type": "uint256"
        }
      ],
      "stateMutability": "view",
      "type": "function"
    },
    {
      "inputs": [
        {
          "internalType": "uint256",
          "name": "tokenId",
          "type": "uint256"
        }
      ],
      "name": "burn",
      "outputs": [],
      "stateMutability": "nonpayable",
      "type": "function"
    },
    {
      "inputs": [
        {
          "internalType": "uint256",
          "name": "tokenId",
          "type": "uint256"
        }
      ],
      "name": "getApproved",
      "outputs": [
        {
          "internalType": "address",
          "name": "",
          "type": "address"
        }
      ],
      "stateMutability": "view",
      "type": "function"
    },
    {
      "inputs": [
        {
          "internalType": "address",
          "name": "owner",
          "type": "address"
        },
        {
          "internalType": "address",
          "name": "operator",
          "type": "address"
        }
      ],
      "name": "isApprovedForAll",
      "outputs": [
        {
          "internalType": "bool",
          "name": "",
          "type": "bool"
        }
      ],
      "stateMutability": "view",
      "type": "function"
    },
    {
      "inputs": [],
      "name": "metadataURI",
      "outputs": [
        {
          "internalType": "string",
          "name": "",
          "type": "string"
        }
      ],
      "stateMutability": "view",
      "type": "function"
    },
    {
      "inputs": [],
      "name": "name",
      "outputs": [
        {
          "internalType": "string",
          "name": "",
          "type": "string"
        }
      ],
      "stateMutability": "view",
      "type": "function"
    },
    {
      "inputs": [],
      "name": "owner",
      "outputs": [
        {
          "internalType": "address",
          "name": "",
          "type": "address"
        }
      ],
      "stateMutability": "view",
      "type": "function"
    },
    {
      "inputs": [
        {
          "internalType": "uint256",
          "name": "tokenId",
          "type": "uint256"
        }
      ],
      "name": "ownerOf",
      "outputs": [
        {
          "internalType": "address",
          "name": "",
          "type": "address"
        }
      ],
      "stateMutability": "view",
      "type": "function"
    },
    {
      "inputs": [],
      "name": "renounceOwnership",
      "outputs": [],
      "stateMutability": "nonpayable",
      "type": "function"
    },
    {
      "inputs": [
        {
          "internalType": "address",
          "name": "to",
          "type": "address"
        },
        {
          "internalType": "string",
          "name": "cid",
          "type": "string"
        }
      ],
      "name": "safeMint",
      "outputs": [
        {
          "internalType": "uint256",
          "name": "",
          "type": "uint256"
        }
      ],
      "stateMutability": "nonpayable",
      "type": "function"
    },
    {
      "inputs": [
        {
          "internalType": "address",
          "name": "from",
          "type": "address"
        },
        {
          "internalType": "address",
          "name": "to",
          "type": "address"
        },
        {
          "internalType": "uint256",
          "name": "tokenId",
          "type": "uint256"
        }
      ],
      "name": "safeTransferFrom",
      "outputs": [],
      "stateMutability": "nonpayable",
      "type": "function"
    },
    {
      "inputs": [
        {
          "internalType": "address",
          "name": "from",
          "type": "address"
        },
        {
          "internalType": "address",
          "name": "to",
          "type": "address"
        },
        {
          "internalType": "uint256",
          "name": "tokenId",
          "type": "uint256"
        },
        {
          "internalType": "bytes",
          "name": "data",
          "type": "bytes"
        }
      ],
      "name": "safeTransferFrom",
      "outputs": [],
      "stateMutability": "nonpayable",
      "type": "function"
    },
    {
      "inputs": [
        {
          "internalType": "address",
          "name": "operator",
          "type": "address"
        },
        {
          "internalType": "bool",
          "name": "approved",
          "type": "bool"
        }
      ],
      "name": "setApprovalForAll",
      "outputs": [],
      "stateMutability": "nonpayable",
      "type": "function"
    },
    {
      "inputs": [
        {
          "internalType": "bytes4",
          "name": "interfaceId",
          "type": "bytes4"
        }
      ],
      "name": "supportsInterface",
      "outputs": [
        {
          "internalType": "bool",
          "name": "",
          "type": "bool"
        }
      ],
      "stateMutability": "view",
      "type": "function"
    },
    {
      "inputs": [],
      "name": "symbol",
      "outputs": [
        {
          "internalType": "string",
          "name": "",
          "type": "string"
        }
      ],
      "stateMutability": "view",
      "type": "function"
    },
    {
      "inputs": [
        {
          "internalType": "uint256",
          "name": "tokenId",
          "type": "uint256"
        }
      ],
      "name": "tokenURI",
      "outputs": [
        {
          "internalType": "string",
          "name": "",
          "type": "string"
        }
      ],
      "stateMutability": "view",
      "type": "function"
    },
    {
      "inputs": [
        {
          "internalType": "address",
          "name": "from",
          "type": "address"
        },
        {
          "internalType": "address",
          "name": "to",
          "type": "address"
        },
        {
          "internalType": "uint256",
          "name": "tokenId",
          "type": "uint256"
        }
      ],
      "name": "transferFrom",
      "outputs": [],
      "stateMutability": "nonpayable",
      "type": "function"
    },
    {
      "inputs": [
        {
          "internalType": "address",
          "name": "newOwner",
          "type": "address"
        }
      ],
      "name": "transferOwnership",
      "outputs": [],
      "stateMutability": "nonpayable",
      "type": "function"
    },
    {
      "inputs": [
        {
          "internalType": "uint256",
          "name": "tokenId",
          "type": "uint256"
        }
      ],
      "name": "userBurn",
      "outputs": [],
      "stateMutability": "nonpayable",
      "type": "function"
    }
  ],
  "transactionHash": "0xe2ae2157e159121ffad95866ddce78f76f6abe0bca1c31d19b8743910e8c6093",
  "args": [],
  "numDeployments": 3,
  "solcInputHash": "6b78044c6f3ad1ac34273247c2cf29ec",
  "bytecode": "0x60806040526040518060600160405280602b815260200162004dd7602b9139600b90816200002e919062000946565b506040518060400160405280600781526020017f4253465f53504e00000000000000000000000000000000000000000000000000815250600e908162000075919062000946565b503480156200008357600080fd5b506040518060400160405280600e81526020017f42415349435f53504e5f464143540000000000000000000000000000000000008152506040518060400160405280600381526020017f4253460000000000000000000000000000000000000000000000000000000000815250816000908162000101919062000946565b50806001908162000113919062000946565b505050620001366200012a6200036960201b60201c565b6200037160201b60201c565b6001600881905550734b48841d4b32c4650e4abc117a03fe8b51f38f68600a60006101000a81548173ffffffffffffffffffffffffffffffffffffffff021916908373ffffffffffffffffffffffffffffffffffffffff160217905550600a60009054906101000a900473ffffffffffffffffffffffffffffffffffffffff1673ffffffffffffffffffffffffffffffffffffffff16633a9151b030620002946040518060600160405280602c815260200162004e02602c9139600e8054620001ff9062000735565b80601f01602080910402602001604051908101604052809291908181526020018280546200022d9062000735565b80156200027e5780601f1062000252576101008083540402835291602001916200027e565b820191906000526020600020905b8154815290600101906020018083116200026057829003601f168201915b50505050506200043760201b62000f711760201c565b6040518363ffffffff1660e01b8152600401620002b392919062000b01565b6020604051808303816000875af1158015620002d3573d6000803e3d6000fd5b505050506040513d601f19601f82011682018060405250810190620002f9919062000b6b565b600d81905550600e62000317466200047c60201b62000fa71760201c565b6200032f600d546200047c60201b62000fa71760201c565b604051602001620003439392919062000c94565b604051602081830303815290604052600c908162000362919062000946565b5062000ec7565b600033905090565b6000600760009054906101000a900473ffffffffffffffffffffffffffffffffffffffff16905081600760006101000a81548173ffffffffffffffffffffffffffffffffffffffff021916908373ffffffffffffffffffffffffffffffffffffffff1602179055508173ffffffffffffffffffffffffffffffffffffffff168173ffffffffffffffffffffffffffffffffffffffff167f8be0079c531659141344cd1fd0a4f28419497f9722a3daafe3b4186f6b6457e060405160405180910390a35050565b60608162000450466200047c60201b62000fa71760201c565b84604051602001620004659392919062000e2d565b604051602081830303815290604052905092915050565b60606000600162000498846200056060201b620010751760201c565b01905060008167ffffffffffffffff811115620004ba57620004b9620006d7565b5b6040519080825280601f01601f191660200182016040528015620004ed5781602001600182028036833780820191505090505b509050600082602001820190505b60011562000555578080600190039150507f3031323334353637383961626364656600000000000000000000000000000000600a86061a8153600a858162000548576200054762000e98565b5b04945060008503620004fb575b819350505050919050565b600080600090507a184f03e93ff9f4daa797ed6e38ed64bf6a1f0100000000000000008310620005c2577a184f03e93ff9f4daa797ed6e38ed64bf6a1f0100000000000000008381620005b857620005b762000e98565b5b0492506040810190505b6d04ee2d6d415b85acef8100000000831062000603576d04ee2d6d415b85acef81000000008381620005f957620005f862000e98565b5b0492506020810190505b662386f26fc1000083106200063657662386f26fc1000083816200062c576200062b62000e98565b5b0492506010810190505b6305f5e100831062000663576305f5e100838162000659576200065862000e98565b5b0492506008810190505b61271083106200068c57612710838162000682576200068162000e98565b5b0492506004810190505b60648310620006b35760648381620006a957620006a862000e98565b5b0492506002810190505b600a8310620006c3576001810190505b80915050919050565b600081519050919050565b7f4e487b7100000000000000000000000000000000000000000000000000000000600052604160045260246000fd5b7f4e487b7100000000000000000000000000000000000000000000000000000000600052602260045260246000fd5b600060028204905060018216806200074e57607f821691505b60208210810362000764576200076362000706565b5b50919050565b60008190508160005260206000209050919050565b60006020601f8301049050919050565b600082821b905092915050565b600060088302620007ce7fffffffffffffffffffffffffffffffffffffffffffffffffffffffffffffffff826200078f565b620007da86836200078f565b95508019841693508086168417925050509392505050565b6000819050919050565b6000819050919050565b600062000827620008216200081b84620007f2565b620007fc565b620007f2565b9050919050565b6000819050919050565b620008438362000806565b6200085b62000852826200082e565b8484546200079c565b825550505050565b600090565b6200087262000863565b6200087f81848462000838565b505050565b5b81811015620008a7576200089b60008262000868565b60018101905062000885565b5050565b601f821115620008f657620008c0816200076a565b620008cb846200077f565b81016020851015620008db578190505b620008f3620008ea856200077f565b83018262000884565b50505b505050565b600082821c905092915050565b60006200091b60001984600802620008fb565b1980831691505092915050565b600062000936838362000908565b9150826002028217905092915050565b6200095182620006cc565b67ffffffffffffffff8111156200096d576200096c620006d7565b5b62000979825462000735565b62000986828285620008ab565b600060209050601f831160018114620009be5760008415620009a9578287015190505b620009b5858262000928565b86555062000a25565b601f198416620009ce866200076a565b60005b82811015620009f857848901518255600182019150602085019450602081019050620009d1565b8683101562000a18578489015162000a14601f89168262000908565b8355505b6001600288020188555050505b505050505050565b600073ffffffffffffffffffffffffffffffffffffffff82169050919050565b600062000a5a8262000a2d565b9050919050565b62000a6c8162000a4d565b82525050565b600082825260208201905092915050565b60005b8381101562000aa357808201518184015260208101905062000a86565b60008484015250505050565b6000601f19601f8301169050919050565b600062000acd82620006cc565b62000ad9818562000a72565b935062000aeb81856020860162000a83565b62000af68162000aaf565b840191505092915050565b600060408201905062000b18600083018562000a61565b818103602083015262000b2c818462000ac0565b90509392505050565b600080fd5b62000b4581620007f2565b811462000b5157600080fd5b50565b60008151905062000b658162000b3a565b92915050565b60006020828403121562000b845762000b8362000b35565b5b600062000b948482850162000b54565b91505092915050565b600081905092915050565b6000815462000bb78162000735565b62000bc3818662000b9d565b9450600182166000811462000be1576001811462000bf75762000c2e565b60ff198316865281151582028601935062000c2e565b62000c02856200076a565b60005b8381101562000c265781548189015260018201915060208101905062000c05565b838801955050505b50505092915050565b7f5f00000000000000000000000000000000000000000000000000000000000000815250565b600062000c6a82620006cc565b62000c76818562000b9d565b935062000c8881856020860162000a83565b80840191505092915050565b600062000ca2828662000ba8565b915062000caf8262000c37565b60018201915062000cc1828562000c5d565b915062000cce8262000c37565b60018201915062000ce0828462000c5d565b9150819050949350505050565b7f435245415445205441424c452000000000000000000000000000000000000000600082015250565b600062000d25600d8362000b9d565b915062000d328262000ced565b600d82019050919050565b7f5f00000000000000000000000000000000000000000000000000000000000000600082015250565b600062000d7560018362000b9d565b915062000d828262000d3d565b600182019050919050565b7f2800000000000000000000000000000000000000000000000000000000000000600082015250565b600062000dc560018362000b9d565b915062000dd28262000d8d565b600182019050919050565b7f2900000000000000000000000000000000000000000000000000000000000000600082015250565b600062000e1560018362000b9d565b915062000e228262000ddd565b600182019050919050565b600062000e3a8262000d16565b915062000e48828662000c5d565b915062000e558262000d66565b915062000e63828562000c5d565b915062000e708262000db6565b915062000e7e828462000c5d565b915062000e8b8262000e06565b9150819050949350505050565b7f4e487b7100000000000000000000000000000000000000000000000000000000600052601260045260246000fd5b613f008062000ed76000396000f3fe608060405234801561001057600080fd5b506004361061012c5760003560e01c806370a08231116100ad578063b88d4fde11610071578063b88d4fde1461031b578063c87b56dd14610337578063d204c45e14610367578063e985e9c514610397578063f2fde38b146103c75761012c565b806370a0823114610289578063715018a6146102b95780638da5cb5b146102c357806395d89b41146102e1578063a22cb465146102ff5761012c565b806323b872dd116100f457806323b872dd146101e957806342842e0e1461020557806342966c6814610221578063496409191461023d5780636352211e146102595761012c565b806301ffc9a71461013157806303ee438c1461016157806306fdde031461017f578063081812fc1461019d578063095ea7b3146101cd575b600080fd5b61014b6004803603810190610146919061271b565b6103e3565b6040516101589190612763565b60405180910390f35b6101696104c5565b604051610176919061280e565b60405180910390f35b6101876104fc565b604051610194919061280e565b60405180910390f35b6101b760048036038101906101b29190612866565b61058e565b6040516101c491906128d4565b60405180910390f35b6101e760048036038101906101e2919061291b565b6105d4565b005b61020360048036038101906101fe919061295b565b6106eb565b005b61021f600480360381019061021a919061295b565b61074b565b005b61023b60048036038101906102369190612866565b61076b565b005b61025760048036038101906102529190612866565b6107c7565b005b610273600480360381019061026e9190612866565b610999565b60405161028091906128d4565b60405180910390f35b6102a3600480360381019061029e91906129ae565b610a1f565b6040516102b091906129ea565b60405180910390f35b6102c1610ad6565b005b6102cb610aea565b6040516102d891906128d4565b60405180910390f35b6102e9610b14565b6040516102f6919061280e565b60405180910390f35b61031960048036038101906103149190612a31565b610ba6565b005b61033560048036038101906103309190612ba6565b610bbc565b005b610351600480360381019061034c9190612866565b610c1e565b60405161035e919061280e565b60405180910390f35b610381600480360381019061037c9190612cca565b610c30565b60405161038e91906129ea565b60405180910390f35b6103b160048036038101906103ac9190612d26565b610e5a565b6040516103be9190612763565b60405180910390f35b6103e160048036038101906103dc91906129ae565b610eee565b005b60007f80ac58cd000000000000000000000000000000000000000000000000000000007bffffffffffffffffffffffffffffffffffffffffffffffffffffffff1916827bffffffffffffffffffffffffffffffffffffffffffffffffffffffff191614806104ae57507f5b5e139f000000000000000000000000000000000000000000000000000000007bffffffffffffffffffffffffffffffffffffffffffffffffffffffff1916827bffffffffffffffffffffffffffffffffffffffffffffffffffffffff1916145b806104be57506104bd826111c8565b5b9050919050565b606060006104d1611232565b905080600c6040516020016104e7929190612ec0565b60405160208183030381529060405291505090565b60606000805461050b90612df7565b80601f016020809104026020016040519081016040528092919081815260200182805461053790612df7565b80156105845780601f1061055957610100808354040283529160200191610584565b820191906000526020600020905b81548152906001019060200180831161056757829003601f168201915b5050505050905090565b6000610599826112c4565b6004600083815260200190815260200160002060009054906101000a900473ffffffffffffffffffffffffffffffffffffffff169050919050565b60006105df82610999565b90508073ffffffffffffffffffffffffffffffffffffffff168373ffffffffffffffffffffffffffffffffffffffff160361064f576040517f08c379a000000000000000000000000000000000000000000000000000000000815260040161064690612f65565b60405180910390fd5b8073ffffffffffffffffffffffffffffffffffffffff1661066e61130f565b73ffffffffffffffffffffffffffffffffffffffff16148061069d575061069c8161069761130f565b610e5a565b5b6106dc576040517f08c379a00000000000000000000000000000000000000000000000000000000081526004016106d390612ff7565b60405180910390fd5b6106e68383611317565b505050565b6106fc6106f661130f565b826113d0565b61073b576040517f08c379a000000000000000000000000000000000000000000000000000000000815260040161073290613089565b60405180910390fd5b610746838383611465565b505050565b61076683838360405180602001604052806000815250610bbc565b505050565b61077c61077661130f565b826113d0565b6107bb576040517f08c379a00000000000000000000000000000000000000000000000000000000081526004016107b290613089565b60405180910390fd5b6107c48161175e565b50565b3373ffffffffffffffffffffffffffffffffffffffff166107e782610999565b73ffffffffffffffffffffffffffffffffffffffff161461083d576040517f08c379a0000000000000000000000000000000000000000000000000000000008152600401610834906130f5565b60405180910390fd5b600a60009054906101000a900473ffffffffffffffffffffffffffffffffffffffff1673ffffffffffffffffffffffffffffffffffffffff1663eaf5d04e30600d5461093d600e805461088f90612df7565b80601f01602080910402602001604051908101604052809291908181526020018280546108bb90612df7565b80156109085780601f106108dd57610100808354040283529160200191610908565b820191906000526020600020905b8154815290600101906020018083116108eb57829003601f168201915b5050505050600d5461091988610fa7565b6040516020016109299190613161565b60405160208183030381529060405261176a565b6040518463ffffffff1660e01b815260040161095b93929190613196565b600060405180830381600087803b15801561097557600080fd5b505af1158015610989573d6000803e3d6000fd5b505050506109968161175e565b50565b6000806109a5836117a6565b9050600073ffffffffffffffffffffffffffffffffffffffff168173ffffffffffffffffffffffffffffffffffffffff1603610a16576040517f08c379a0000000000000000000000000000000000000000000000000000000008152600401610a0d90613220565b60405180910390fd5b80915050919050565b60008073ffffffffffffffffffffffffffffffffffffffff168273ffffffffffffffffffffffffffffffffffffffff1603610a8f576040517f08c379a0000000000000000000000000000000000000000000000000000000008152600401610a86906132b2565b60405180910390fd5b600360008373ffffffffffffffffffffffffffffffffffffffff1673ffffffffffffffffffffffffffffffffffffffff168152602001908152602001600020549050919050565b610ade6117e3565b610ae86000611861565b565b6000600760009054906101000a900473ffffffffffffffffffffffffffffffffffffffff16905090565b606060018054610b2390612df7565b80601f0160208091040260200160405190810160405280929190818152602001828054610b4f90612df7565b8015610b9c5780601f10610b7157610100808354040283529160200191610b9c565b820191906000526020600020905b815481529060010190602001808311610b7f57829003601f168201915b5050505050905090565b610bb8610bb161130f565b8383611927565b5050565b610bcd610bc761130f565b836113d0565b610c0c576040517f08c379a0000000000000000000000000000000000000000000000000000000008152600401610c0390613089565b60405180910390fd5b610c1884848484611a93565b50505050565b6060610c2982611aef565b9050919050565b600080610c3c33610a1f565b14610c7c576040517f08c379a0000000000000000000000000000000000000000000000000000000008152600401610c739061331e565b60405180910390fd5b6000610c886009611c01565b9050600a60009054906101000a900473ffffffffffffffffffffffffffffffffffffffff1673ffffffffffffffffffffffffffffffffffffffff1663eaf5d04e30600d54610ddc600e8054610cdc90612df7565b80601f0160208091040260200160405190810160405280929190818152602001828054610d0890612df7565b8015610d555780601f10610d2a57610100808354040283529160200191610d55565b820191906000526020600020905b815481529060010190602001808311610d3857829003601f168201915b5050505050600d546040518060400160405280600e81526020017f69642c616464726573732c636964000000000000000000000000000000000000815250610d9c89610fa7565b610dad610da88e611c0f565b611c3c565b610db68d611c3c565b604051602001610dc893929190613364565b604051602081830303815290604052611c65565b6040518463ffffffff1660e01b8152600401610dfa93929190613196565b600060405180830381600087803b158015610e1457600080fd5b505af1158015610e28573d6000803e3d6000fd5b50505050610e46848260405180602001604052806000815250611ca4565b610e506009611cff565b8091505092915050565b6000600560008473ffffffffffffffffffffffffffffffffffffffff1673ffffffffffffffffffffffffffffffffffffffff16815260200190815260200160002060008373ffffffffffffffffffffffffffffffffffffffff1673ffffffffffffffffffffffffffffffffffffffff16815260200190815260200160002060009054906101000a900460ff16905092915050565b610ef66117e3565b600073ffffffffffffffffffffffffffffffffffffffff168173ffffffffffffffffffffffffffffffffffffffff1603610f65576040517f08c379a0000000000000000000000000000000000000000000000000000000008152600401610f5c90613425565b60405180910390fd5b610f6e81611861565b50565b606081610f7d46610fa7565b84604051602001610f9093929190613575565b604051602081830303815290604052905092915050565b606060006001610fb684611075565b01905060008167ffffffffffffffff811115610fd557610fd4612a7b565b5b6040519080825280601f01601f1916602001820160405280156110075781602001600182028036833780820191505090505b509050600082602001820190505b60011561106a578080600190039150507f3031323334353637383961626364656600000000000000000000000000000000600a86061a8153600a858161105e5761105d6135d2565b5b04945060008503611015575b819350505050919050565b600080600090507a184f03e93ff9f4daa797ed6e38ed64bf6a1f01000000000000000083106110d3577a184f03e93ff9f4daa797ed6e38ed64bf6a1f01000000000000000083816110c9576110c86135d2565b5b0492506040810190505b6d04ee2d6d415b85acef81000000008310611110576d04ee2d6d415b85acef81000000008381611106576111056135d2565b5b0492506020810190505b662386f26fc10000831061113f57662386f26fc100008381611135576111346135d2565b5b0492506010810190505b6305f5e1008310611168576305f5e100838161115e5761115d6135d2565b5b0492506008810190505b612710831061118d576127108381611183576111826135d2565b5b0492506004810190505b606483106111b057606483816111a6576111a56135d2565b5b0492506002810190505b600a83106111bf576001810190505b80915050919050565b60007f01ffc9a7000000000000000000000000000000000000000000000000000000007bffffffffffffffffffffffffffffffffffffffffffffffffffffffff1916827bffffffffffffffffffffffffffffffffffffffffffffffffffffffff1916149050919050565b6060600b805461124190612df7565b80601f016020809104026020016040519081016040528092919081815260200182805461126d90612df7565b80156112ba5780601f1061128f576101008083540402835291602001916112ba565b820191906000526020600020905b81548152906001019060200180831161129d57829003601f168201915b5050505050905090565b6112cd81611d15565b61130c576040517f08c379a000000000000000000000000000000000000000000000000000000000815260040161130390613220565b60405180910390fd5b50565b600033905090565b816004600083815260200190815260200160002060006101000a81548173ffffffffffffffffffffffffffffffffffffffff021916908373ffffffffffffffffffffffffffffffffffffffff160217905550808273ffffffffffffffffffffffffffffffffffffffff1661138a83610999565b73ffffffffffffffffffffffffffffffffffffffff167f8c5be1e5ebec7d5bd14f71427d1e84f3dd0314c0f7b2291e5b200ac8c7c3b92560405160405180910390a45050565b6000806113dc83610999565b90508073ffffffffffffffffffffffffffffffffffffffff168473ffffffffffffffffffffffffffffffffffffffff16148061141e575061141d8185610e5a565b5b8061145c57508373ffffffffffffffffffffffffffffffffffffffff166114448461058e565b73ffffffffffffffffffffffffffffffffffffffff16145b91505092915050565b8273ffffffffffffffffffffffffffffffffffffffff1661148582610999565b73ffffffffffffffffffffffffffffffffffffffff16146114db576040517f08c379a00000000000000000000000000000000000000000000000000000000081526004016114d290613673565b60405180910390fd5b600073ffffffffffffffffffffffffffffffffffffffff168273ffffffffffffffffffffffffffffffffffffffff160361154a576040517f08c379a000000000000000000000000000000000000000000000000000000000815260040161154190613705565b60405180910390fd5b6115578383836001611d56565b8273ffffffffffffffffffffffffffffffffffffffff1661157782610999565b73ffffffffffffffffffffffffffffffffffffffff16146115cd576040517f08c379a00000000000000000000000000000000000000000000000000000000081526004016115c490613673565b60405180910390fd5b6004600082815260200190815260200160002060006101000a81549073ffffffffffffffffffffffffffffffffffffffff02191690556001600360008573ffffffffffffffffffffffffffffffffffffffff1673ffffffffffffffffffffffffffffffffffffffff168152602001908152602001600020600082825403925050819055506001600360008473ffffffffffffffffffffffffffffffffffffffff1673ffffffffffffffffffffffffffffffffffffffff16815260200190815260200160002060008282540192505081905550816002600083815260200190815260200160002060006101000a81548173ffffffffffffffffffffffffffffffffffffffff021916908373ffffffffffffffffffffffffffffffffffffffff160217905550808273ffffffffffffffffffffffffffffffffffffffff168473ffffffffffffffffffffffffffffffffffffffff167fddf252ad1be2c89b69c2b068fc378daa952ba7f163c4a11628f55a4df523b3ef60405160405180910390a46117598383836001611e02565b505050565b61176781611e08565b50565b606060006117788585611e5b565b9050808360405160200161178d9291906137bd565b6040516020818303038152906040529150509392505050565b60006002600083815260200190815260200160002060009054906101000a900473ffffffffffffffffffffffffffffffffffffffff169050919050565b6117eb61130f565b73ffffffffffffffffffffffffffffffffffffffff16611809610aea565b73ffffffffffffffffffffffffffffffffffffffff161461185f576040517f08c379a000000000000000000000000000000000000000000000000000000000815260040161185690613843565b60405180910390fd5b565b6000600760009054906101000a900473ffffffffffffffffffffffffffffffffffffffff16905081600760006101000a81548173ffffffffffffffffffffffffffffffffffffffff021916908373ffffffffffffffffffffffffffffffffffffffff1602179055508173ffffffffffffffffffffffffffffffffffffffff168173ffffffffffffffffffffffffffffffffffffffff167f8be0079c531659141344cd1fd0a4f28419497f9722a3daafe3b4186f6b6457e060405160405180910390a35050565b8173ffffffffffffffffffffffffffffffffffffffff168373ffffffffffffffffffffffffffffffffffffffff1603611995576040517f08c379a000000000000000000000000000000000000000000000000000000000815260040161198c906138af565b60405180910390fd5b80600560008573ffffffffffffffffffffffffffffffffffffffff1673ffffffffffffffffffffffffffffffffffffffff16815260200190815260200160002060008473ffffffffffffffffffffffffffffffffffffffff1673ffffffffffffffffffffffffffffffffffffffff16815260200190815260200160002060006101000a81548160ff0219169083151502179055508173ffffffffffffffffffffffffffffffffffffffff168373ffffffffffffffffffffffffffffffffffffffff167f17307eab39ab6107e8899845ad3d59bd9653f200f220920489ca2b5937696c3183604051611a869190612763565b60405180910390a3505050565b611a9e848484611465565b611aaa84848484611e99565b611ae9576040517f08c379a0000000000000000000000000000000000000000000000000000000008152600401611ae090613941565b60405180910390fd5b50505050565b6060611afa826112c4565b6000600660008481526020019081526020016000208054611b1a90612df7565b80601f0160208091040260200160405190810160405280929190818152602001828054611b4690612df7565b8015611b935780601f10611b6857610100808354040283529160200191611b93565b820191906000526020600020905b815481529060010190602001808311611b7657829003601f168201915b505050505090506000611ba4611232565b90506000815103611bb9578192505050611bfc565b600082511115611bee578082604051602001611bd6929190613961565b60405160208183030381529060405292505050611bfc565b611bf784612020565b925050505b919050565b600081600001549050919050565b6060611c358273ffffffffffffffffffffffffffffffffffffffff16601460ff16612088565b9050919050565b606081604051602001611c4f91906139d1565b6040516020818303038152906040529050919050565b60606000611c738686611e5b565b9050808484604051602001611c8a93929190613a96565b604051602081830303815290604052915050949350505050565b611cae83836122c4565b611cbb6000848484611e99565b611cfa576040517f08c379a0000000000000000000000000000000000000000000000000000000008152600401611cf190613941565b60405180910390fd5b505050565b6001816000016000828254019250508190555050565b60008073ffffffffffffffffffffffffffffffffffffffff16611d37836117a6565b73ffffffffffffffffffffffffffffffffffffffff1614159050919050565b600073ffffffffffffffffffffffffffffffffffffffff168473ffffffffffffffffffffffffffffffffffffffff161480611dbd5750600073ffffffffffffffffffffffffffffffffffffffff168373ffffffffffffffffffffffffffffffffffffffff16145b611dfc576040517f08c379a0000000000000000000000000000000000000000000000000000000008152600401611df390613b3f565b60405180910390fd5b50505050565b50505050565b611e11816124e1565b6000600660008381526020019081526020016000208054611e3190612df7565b905014611e5857600660008281526020019081526020016000206000611e579190612652565b5b50565b606082611e6746610fa7565b611e7084610fa7565b604051602001611e8293929190613b5f565b604051602081830303815290604052905092915050565b6000611eba8473ffffffffffffffffffffffffffffffffffffffff1661262f565b15612013578373ffffffffffffffffffffffffffffffffffffffff1663150b7a02611ee361130f565b8786866040518563ffffffff1660e01b8152600401611f059493929190613bfb565b6020604051808303816000875af1925050508015611f4157506040513d601f19601f82011682018060405250810190611f3e9190613c5c565b60015b611fc3573d8060008114611f71576040519150601f19603f3d011682016040523d82523d6000602084013e611f76565b606091505b506000815103611fbb576040517f08c379a0000000000000000000000000000000000000000000000000000000008152600401611fb290613941565b60405180910390fd5b805181602001fd5b63150b7a0260e01b7bffffffffffffffffffffffffffffffffffffffffffffffffffffffff1916817bffffffffffffffffffffffffffffffffffffffffffffffffffffffff191614915050612018565b600190505b949350505050565b606061202b826112c4565b6000612035611232565b905060008151116120555760405180602001604052806000815250612080565b8061205f84610fa7565b604051602001612070929190613961565b6040516020818303038152906040525b915050919050565b60606000600283600261209b9190613cb8565b6120a59190613cfa565b67ffffffffffffffff8111156120be576120bd612a7b565b5b6040519080825280601f01601f1916602001820160405280156120f05781602001600182028036833780820191505090505b5090507f30000000000000000000000000000000000000000000000000000000000000008160008151811061212857612127613d2e565b5b60200101907effffffffffffffffffffffffffffffffffffffffffffffffffffffffffffff1916908160001a9053507f78000000000000000000000000000000000000000000000000000000000000008160018151811061218c5761218b613d2e565b5b60200101907effffffffffffffffffffffffffffffffffffffffffffffffffffffffffffff1916908160001a905350600060018460026121cc9190613cb8565b6121d69190613cfa565b90505b6001811115612276577f3031323334353637383961626364656600000000000000000000000000000000600f86166010811061221857612217613d2e565b5b1a60f81b82828151811061222f5761222e613d2e565b5b60200101907effffffffffffffffffffffffffffffffffffffffffffffffffffffffffffff1916908160001a905350600485901c94508061226f90613d5d565b90506121d9565b50600084146122ba576040517f08c379a00000000000000000000000000000000000000000000000000000000081526004016122b190613dd2565b60405180910390fd5b8091505092915050565b600073ffffffffffffffffffffffffffffffffffffffff168273ffffffffffffffffffffffffffffffffffffffff1603612333576040517f08c379a000000000000000000000000000000000000000000000000000000000815260040161232a90613e3e565b60405180910390fd5b61233c81611d15565b1561237c576040517f08c379a000000000000000000000000000000000000000000000000000000000815260040161237390613eaa565b60405180910390fd5b61238a600083836001611d56565b61239381611d15565b156123d3576040517f08c379a00000000000000000000000000000000000000000000000000000000081526004016123ca90613eaa565b60405180910390fd5b6001600360008473ffffffffffffffffffffffffffffffffffffffff1673ffffffffffffffffffffffffffffffffffffffff16815260200190815260200160002060008282540192505081905550816002600083815260200190815260200160002060006101000a81548173ffffffffffffffffffffffffffffffffffffffff021916908373ffffffffffffffffffffffffffffffffffffffff160217905550808273ffffffffffffffffffffffffffffffffffffffff16600073ffffffffffffffffffffffffffffffffffffffff167fddf252ad1be2c89b69c2b068fc378daa952ba7f163c4a11628f55a4df523b3ef60405160405180910390a46124dd600083836001611e02565b5050565b60006124ec82610999565b90506124fc816000846001611d56565b61250582610999565b90506004600083815260200190815260200160002060006101000a81549073ffffffffffffffffffffffffffffffffffffffff02191690556001600360008373ffffffffffffffffffffffffffffffffffffffff1673ffffffffffffffffffffffffffffffffffffffff168152602001908152602001600020600082825403925050819055506002600083815260200190815260200160002060006101000a81549073ffffffffffffffffffffffffffffffffffffffff021916905581600073ffffffffffffffffffffffffffffffffffffffff168273ffffffffffffffffffffffffffffffffffffffff167fddf252ad1be2c89b69c2b068fc378daa952ba7f163c4a11628f55a4df523b3ef60405160405180910390a461262b816000846001611e02565b5050565b6000808273ffffffffffffffffffffffffffffffffffffffff163b119050919050565b50805461265e90612df7565b6000825580601f10612670575061268f565b601f01602090049060005260206000209081019061268e9190612692565b5b50565b5b808211156126ab576000816000905550600101612693565b5090565b6000604051905090565b600080fd5b600080fd5b60007fffffffff0000000000000000000000000000000000000000000000000000000082169050919050565b6126f8816126c3565b811461270357600080fd5b50565b600081359050612715816126ef565b92915050565b600060208284031215612731576127306126b9565b5b600061273f84828501612706565b91505092915050565b60008115159050919050565b61275d81612748565b82525050565b60006020820190506127786000830184612754565b92915050565b600081519050919050565b600082825260208201905092915050565b60005b838110156127b857808201518184015260208101905061279d565b60008484015250505050565b6000601f19601f8301169050919050565b60006127e08261277e565b6127ea8185612789565b93506127fa81856020860161279a565b612803816127c4565b840191505092915050565b6000602082019050818103600083015261282881846127d5565b905092915050565b6000819050919050565b61284381612830565b811461284e57600080fd5b50565b6000813590506128608161283a565b92915050565b60006020828403121561287c5761287b6126b9565b5b600061288a84828501612851565b91505092915050565b600073ffffffffffffffffffffffffffffffffffffffff82169050919050565b60006128be82612893565b9050919050565b6128ce816128b3565b82525050565b60006020820190506128e960008301846128c5565b92915050565b6128f8816128b3565b811461290357600080fd5b50565b600081359050612915816128ef565b92915050565b60008060408385031215612932576129316126b9565b5b600061294085828601612906565b925050602061295185828601612851565b9150509250929050565b600080600060608486031215612974576129736126b9565b5b600061298286828701612906565b935050602061299386828701612906565b92505060406129a486828701612851565b9150509250925092565b6000602082840312156129c4576129c36126b9565b5b60006129d284828501612906565b91505092915050565b6129e481612830565b82525050565b60006020820190506129ff60008301846129db565b92915050565b612a0e81612748565b8114612a1957600080fd5b50565b600081359050612a2b81612a05565b92915050565b60008060408385031215612a4857612a476126b9565b5b6000612a5685828601612906565b9250506020612a6785828601612a1c565b9150509250929050565b600080fd5b600080fd5b7f4e487b7100000000000000000000000000000000000000000000000000000000600052604160045260246000fd5b612ab3826127c4565b810181811067ffffffffffffffff82111715612ad257612ad1612a7b565b5b80604052505050565b6000612ae56126af565b9050612af18282612aaa565b919050565b600067ffffffffffffffff821115612b1157612b10612a7b565b5b612b1a826127c4565b9050602081019050919050565b82818337600083830152505050565b6000612b49612b4484612af6565b612adb565b905082815260208101848484011115612b6557612b64612a76565b5b612b70848285612b27565b509392505050565b600082601f830112612b8d57612b8c612a71565b5b8135612b9d848260208601612b36565b91505092915050565b60008060008060808587031215612bc057612bbf6126b9565b5b6000612bce87828801612906565b9450506020612bdf87828801612906565b9350506040612bf087828801612851565b925050606085013567ffffffffffffffff811115612c1157612c106126be565b5b612c1d87828801612b78565b91505092959194509250565b600067ffffffffffffffff821115612c4457612c43612a7b565b5b612c4d826127c4565b9050602081019050919050565b6000612c6d612c6884612c29565b612adb565b905082815260208101848484011115612c8957612c88612a76565b5b612c94848285612b27565b509392505050565b600082601f830112612cb157612cb0612a71565b5b8135612cc1848260208601612c5a565b91505092915050565b60008060408385031215612ce157612ce06126b9565b5b6000612cef85828601612906565b925050602083013567ffffffffffffffff811115612d1057612d0f6126be565b5b612d1c85828601612c9c565b9150509250929050565b60008060408385031215612d3d57612d3c6126b9565b5b6000612d4b85828601612906565b9250506020612d5c85828601612906565b9150509250929050565b600081905092915050565b6000612d7c8261277e565b612d868185612d66565b9350612d9681856020860161279a565b80840191505092915050565b7f53454c4543542532302a25323046524f4d253230000000000000000000000000815250565b7f4e487b7100000000000000000000000000000000000000000000000000000000600052602260045260246000fd5b60006002820490506001821680612e0f57607f821691505b602082108103612e2257612e21612dc8565b5b50919050565b60008190508160005260206000209050919050565b60008154612e4a81612df7565b612e548186612d66565b94506001821660008114612e6f5760018114612e8457612eb7565b60ff1983168652811515820286019350612eb7565b612e8d85612e28565b60005b83811015612eaf57815481890152600182019150602081019050612e90565b838801955050505b50505092915050565b6000612ecc8285612d71565b9150612ed782612da2565b601482019150612ee78284612e3d565b91508190509392505050565b7f4552433732313a20617070726f76616c20746f2063757272656e74206f776e6560008201527f7200000000000000000000000000000000000000000000000000000000000000602082015250565b6000612f4f602183612789565b9150612f5a82612ef3565b604082019050919050565b60006020820190508181036000830152612f7e81612f42565b9050919050565b7f4552433732313a20617070726f76652063616c6c6572206973206e6f7420746f60008201527f6b656e206f776e6572206f7220617070726f76656420666f7220616c6c000000602082015250565b6000612fe1603d83612789565b9150612fec82612f85565b604082019050919050565b6000602082019050818103600083015261301081612fd4565b9050919050565b7f4552433732313a2063616c6c6572206973206e6f7420746f6b656e206f776e6560008201527f72206f7220617070726f76656400000000000000000000000000000000000000602082015250565b6000613073602d83612789565b915061307e82613017565b604082019050919050565b600060208201905081810360008301526130a281613066565b9050919050565b7f596f7520646f206e6f74206f776e207468697320534254000000000000000000600082015250565b60006130df601783612789565b91506130ea826130a9565b602082019050919050565b6000602082019050818103600083015261310e816130d2565b9050919050565b7f6964203d20000000000000000000000000000000000000000000000000000000815250565b7f3b00000000000000000000000000000000000000000000000000000000000000815250565b600061316c82613115565b60058201915061317c8284612d71565b91506131878261313b565b60018201915081905092915050565b60006060820190506131ab60008301866128c5565b6131b860208301856129db565b81810360408301526131ca81846127d5565b9050949350505050565b7f4552433732313a20696e76616c696420746f6b656e2049440000000000000000600082015250565b600061320a601883612789565b9150613215826131d4565b602082019050919050565b60006020820190508181036000830152613239816131fd565b9050919050565b7f4552433732313a2061646472657373207a65726f206973206e6f74206120766160008201527f6c6964206f776e65720000000000000000000000000000000000000000000000602082015250565b600061329c602983612789565b91506132a782613240565b604082019050919050565b600060208201905081810360008301526132cb8161328f565b9050919050565b7f4f6e6c79203120746f6b656e20706572206164647265737320616c6c6f776564600082015250565b6000613308602083612789565b9150613313826132d2565b602082019050919050565b60006020820190508181036000830152613337816132fb565b9050919050565b7f2c00000000000000000000000000000000000000000000000000000000000000815250565b60006133708286612d71565b915061337b8261333e565b60018201915061338b8285612d71565b91506133968261333e565b6001820191506133a68284612d71565b9150819050949350505050565b7f4f776e61626c653a206e6577206f776e657220697320746865207a65726f206160008201527f6464726573730000000000000000000000000000000000000000000000000000602082015250565b600061340f602683612789565b915061341a826133b3565b604082019050919050565b6000602082019050818103600083015261343e81613402565b9050919050565b7f435245415445205441424c452000000000000000000000000000000000000000600082015250565b600061347b600d83612d66565b915061348682613445565b600d82019050919050565b7f5f00000000000000000000000000000000000000000000000000000000000000600082015250565b60006134c7600183612d66565b91506134d282613491565b600182019050919050565b7f2800000000000000000000000000000000000000000000000000000000000000600082015250565b6000613513600183612d66565b915061351e826134dd565b600182019050919050565b7f2900000000000000000000000000000000000000000000000000000000000000600082015250565b600061355f600183612d66565b915061356a82613529565b600182019050919050565b60006135808261346e565b915061358c8286612d71565b9150613597826134ba565b91506135a38285612d71565b91506135ae82613506565b91506135ba8284612d71565b91506135c582613552565b9150819050949350505050565b7f4e487b7100000000000000000000000000000000000000000000000000000000600052601260045260246000fd5b7f4552433732313a207472616e736665722066726f6d20696e636f72726563742060008201527f6f776e6572000000000000000000000000000000000000000000000000000000602082015250565b600061365d602583612789565b915061366882613601565b604082019050919050565b6000602082019050818103600083015261368c81613650565b9050919050565b7f4552433732313a207472616e7366657220746f20746865207a65726f2061646460008201527f7265737300000000000000000000000000000000000000000000000000000000602082015250565b60006136ef602483612789565b91506136fa82613693565b604082019050919050565b6000602082019050818103600083015261371e816136e2565b9050919050565b7f44454c4554452046524f4d200000000000000000000000000000000000000000600082015250565b600061375b600c83612d66565b915061376682613725565b600c82019050919050565b7f2057484552452000000000000000000000000000000000000000000000000000600082015250565b60006137a7600783612d66565b91506137b282613771565b600782019050919050565b60006137c88261374e565b91506137d48285612d71565b91506137df8261379a565b91506137eb8284612d71565b91508190509392505050565b7f4f776e61626c653a2063616c6c6572206973206e6f7420746865206f776e6572600082015250565b600061382d602083612789565b9150613838826137f7565b602082019050919050565b6000602082019050818103600083015261385c81613820565b9050919050565b7f4552433732313a20617070726f766520746f2063616c6c657200000000000000600082015250565b6000613899601983612789565b91506138a482613863565b602082019050919050565b600060208201905081810360008301526138c88161388c565b9050919050565b7f4552433732313a207472616e7366657220746f206e6f6e20455243373231526560008201527f63656976657220696d706c656d656e7465720000000000000000000000000000602082015250565b600061392b603283612789565b9150613936826138cf565b604082019050919050565b6000602082019050818103600083015261395a8161391e565b9050919050565b600061396d8285612d71565b91506139798284612d71565b91508190509392505050565b7f2700000000000000000000000000000000000000000000000000000000000000600082015250565b60006139bb600183612d66565b91506139c682613985565b600182019050919050565b60006139dc826139ae565b91506139e88284612d71565b91506139f3826139ae565b915081905092915050565b7f494e5345525420494e544f200000000000000000000000000000000000000000600082015250565b6000613a34600c83612d66565b9150613a3f826139fe565b600c82019050919050565b7f2956414c55455328000000000000000000000000000000000000000000000000600082015250565b6000613a80600883612d66565b9150613a8b82613a4a565b600882019050919050565b6000613aa182613a27565b9150613aad8286612d71565b9150613ab882613506565b9150613ac48285612d71565b9150613acf82613a73565b9150613adb8284612d71565b9150613ae682613552565b9150819050949350505050565b7f54686973206120736f756c626f756e6420746f6b656e00000000000000000000600082015250565b6000613b29601683612789565b9150613b3482613af3565b602082019050919050565b60006020820190508181036000830152613b5881613b1c565b9050919050565b6000613b6b8286612d71565b9150613b76826134ba565b9150613b828285612d71565b9150613b8d826134ba565b9150613b998284612d71565b9150819050949350505050565b600081519050919050565b600082825260208201905092915050565b6000613bcd82613ba6565b613bd78185613bb1565b9350613be781856020860161279a565b613bf0816127c4565b840191505092915050565b6000608082019050613c1060008301876128c5565b613c1d60208301866128c5565b613c2a60408301856129db565b8181036060830152613c3c8184613bc2565b905095945050505050565b600081519050613c56816126ef565b92915050565b600060208284031215613c7257613c716126b9565b5b6000613c8084828501613c47565b91505092915050565b7f4e487b7100000000000000000000000000000000000000000000000000000000600052601160045260246000fd5b6000613cc382612830565b9150613cce83612830565b9250828202613cdc81612830565b91508282048414831517613cf357613cf2613c89565b5b5092915050565b6000613d0582612830565b9150613d1083612830565b9250828201905080821115613d2857613d27613c89565b5b92915050565b7f4e487b7100000000000000000000000000000000000000000000000000000000600052603260045260246000fd5b6000613d6882612830565b915060008203613d7b57613d7a613c89565b5b600182039050919050565b7f537472696e67733a20686578206c656e67746820696e73756666696369656e74600082015250565b6000613dbc602083612789565b9150613dc782613d86565b602082019050919050565b60006020820190508181036000830152613deb81613daf565b9050919050565b7f4552433732313a206d696e7420746f20746865207a65726f2061646472657373600082015250565b6000613e28602083612789565b9150613e3382613df2565b602082019050919050565b60006020820190508181036000830152613e5781613e1b565b9050919050565b7f4552433732313a20746f6b656e20616c7265616479206d696e74656400000000600082015250565b6000613e94601c83612789565b9150613e9f82613e5e565b602082019050919050565b60006020820190508181036000830152613ec381613e87565b905091905056fea2646970667358221220d1403a5bd34b1f15ad47301f6cab3f801675f6cdd8fcc5f6742f2b9cb1c784ce64736f6c6343000811003368747470733a2f2f746573746e6574732e7461626c656c616e642e6e6574776f726b2f71756572793f733d696420696e7465676572207072696d617279206b65792c6164647265737320746578742c6369642074657874",
  "devdoc": {
    "kind": "dev",
    "methods": {
      "approve(address,uint256)": {
        "details": "See {IERC721-approve}."
      },
      "balanceOf(address)": {
        "details": "See {IERC721-balanceOf}."
      },
      "burn(uint256)": {
        "details": "Burns `tokenId`. See {ERC721-_burn}. Requirements: - The caller must own `tokenId` or be an approved operator."
      },
      "getApproved(uint256)": {
        "details": "See {IERC721-getApproved}."
      },
      "isApprovedForAll(address,address)": {
        "details": "See {IERC721-isApprovedForAll}."
      },
      "name()": {
        "details": "See {IERC721Metadata-name}."
      },
      "owner()": {
        "details": "Returns the address of the current owner."
      },
      "ownerOf(uint256)": {
        "details": "See {IERC721-ownerOf}."
      },
      "renounceOwnership()": {
        "details": "Leaves the contract without owner. It will not be possible to call `onlyOwner` functions anymore. Can only be called by the current owner. NOTE: Renouncing ownership will leave the contract without an owner, thereby removing any functionality that is only available to the owner."
      },
      "safeTransferFrom(address,address,uint256)": {
        "details": "See {IERC721-safeTransferFrom}."
      },
      "safeTransferFrom(address,address,uint256,bytes)": {
        "details": "See {IERC721-safeTransferFrom}."
      },
      "setApprovalForAll(address,bool)": {
        "details": "See {IERC721-setApprovalForAll}."
      },
      "supportsInterface(bytes4)": {
        "details": "See {IERC165-supportsInterface}."
      },
      "symbol()": {
        "details": "See {IERC721Metadata-symbol}."
      },
      "transferFrom(address,address,uint256)": {
        "details": "See {IERC721-transferFrom}."
      },
      "transferOwnership(address)": {
        "details": "Transfers ownership of the contract to a new account (`newOwner`). Can only be called by the current owner."
      }
    },
    "version": 1
  },
  "userdoc": {
    "kind": "user",
    "methods": {},
    "version": 1
  },
  "storageLayout": {
    "storage": [
      {
        "astId": 192,
        "contract": "contracts/BasicSPN.sol:Basic_SPN_Factory",
        "label": "_name",
        "offset": 0,
        "slot": "0",
        "type": "t_string_storage"
      },
      {
        "astId": 194,
        "contract": "contracts/BasicSPN.sol:Basic_SPN_Factory",
        "label": "_symbol",
        "offset": 0,
        "slot": "1",
        "type": "t_string_storage"
      },
      {
        "astId": 198,
        "contract": "contracts/BasicSPN.sol:Basic_SPN_Factory",
        "label": "_owners",
        "offset": 0,
        "slot": "2",
        "type": "t_mapping(t_uint256,t_address)"
      },
      {
        "astId": 202,
        "contract": "contracts/BasicSPN.sol:Basic_SPN_Factory",
        "label": "_balances",
        "offset": 0,
        "slot": "3",
        "type": "t_mapping(t_address,t_uint256)"
      },
      {
        "astId": 206,
        "contract": "contracts/BasicSPN.sol:Basic_SPN_Factory",
        "label": "_tokenApprovals",
        "offset": 0,
        "slot": "4",
        "type": "t_mapping(t_uint256,t_address)"
      },
      {
        "astId": 212,
        "contract": "contracts/BasicSPN.sol:Basic_SPN_Factory",
        "label": "_operatorApprovals",
        "offset": 0,
        "slot": "5",
        "type": "t_mapping(t_address,t_mapping(t_address,t_bool))"
      },
      {
        "astId": 1288,
        "contract": "contracts/BasicSPN.sol:Basic_SPN_Factory",
        "label": "_tokenURIs",
        "offset": 0,
        "slot": "6",
        "type": "t_mapping(t_uint256,t_string_storage)"
      },
      {
        "astId": 7,
        "contract": "contracts/BasicSPN.sol:Basic_SPN_Factory",
        "label": "_owner",
        "offset": 0,
        "slot": "7",
        "type": "t_address"
      },
      {
        "astId": 123,
        "contract": "contracts/BasicSPN.sol:Basic_SPN_Factory",
        "label": "_status",
        "offset": 0,
        "slot": "8",
        "type": "t_uint256"
      },
      {
        "astId": 3439,
        "contract": "contracts/BasicSPN.sol:Basic_SPN_Factory",
        "label": "_tokenIds",
        "offset": 0,
        "slot": "9",
        "type": "t_struct(Counter)1832_storage"
      },
      {
        "astId": 3442,
        "contract": "contracts/BasicSPN.sol:Basic_SPN_Factory",
        "label": "_tableland",
        "offset": 0,
        "slot": "10",
        "type": "t_contract(ITablelandTables)3117"
      },
      {
        "astId": 3445,
        "contract": "contracts/BasicSPN.sol:Basic_SPN_Factory",
        "label": "_baseURIString",
        "offset": 0,
        "slot": "11",
        "type": "t_string_storage"
      },
      {
        "astId": 3447,
        "contract": "contracts/BasicSPN.sol:Basic_SPN_Factory",
        "label": "_metadataTable",
        "offset": 0,
        "slot": "12",
        "type": "t_string_storage"
      },
      {
        "astId": 3449,
        "contract": "contracts/BasicSPN.sol:Basic_SPN_Factory",
        "label": "_metadataTableId",
        "offset": 0,
        "slot": "13",
        "type": "t_uint256"
      },
      {
        "astId": 3452,
        "contract": "contracts/BasicSPN.sol:Basic_SPN_Factory",
        "label": "_tablePrefix",
        "offset": 0,
        "slot": "14",
        "type": "t_string_storage"
      }
    ],
    "types": {
      "t_address": {
        "encoding": "inplace",
        "label": "address",
        "numberOfBytes": "20"
      },
      "t_bool": {
        "encoding": "inplace",
        "label": "bool",
        "numberOfBytes": "1"
      },
      "t_contract(ITablelandTables)3117": {
        "encoding": "inplace",
        "label": "contract ITablelandTables",
        "numberOfBytes": "20"
      },
      "t_mapping(t_address,t_bool)": {
        "encoding": "mapping",
        "key": "t_address",
        "label": "mapping(address => bool)",
        "numberOfBytes": "32",
        "value": "t_bool"
      },
      "t_mapping(t_address,t_mapping(t_address,t_bool))": {
        "encoding": "mapping",
        "key": "t_address",
        "label": "mapping(address => mapping(address => bool))",
        "numberOfBytes": "32",
        "value": "t_mapping(t_address,t_bool)"
      },
      "t_mapping(t_address,t_uint256)": {
        "encoding": "mapping",
        "key": "t_address",
        "label": "mapping(address => uint256)",
        "numberOfBytes": "32",
        "value": "t_uint256"
      },
      "t_mapping(t_uint256,t_address)": {
        "encoding": "mapping",
        "key": "t_uint256",
        "label": "mapping(uint256 => address)",
        "numberOfBytes": "32",
        "value": "t_address"
      },
      "t_mapping(t_uint256,t_string_storage)": {
        "encoding": "mapping",
        "key": "t_uint256",
        "label": "mapping(uint256 => string)",
        "numberOfBytes": "32",
        "value": "t_string_storage"
      },
      "t_string_storage": {
        "encoding": "bytes",
        "label": "string",
        "numberOfBytes": "32"
      },
      "t_struct(Counter)1832_storage": {
        "encoding": "inplace",
        "label": "struct Counters.Counter",
        "members": [
          {
            "astId": 1831,
            "contract": "contracts/BasicSPN.sol:Basic_SPN_Factory",
            "label": "_value",
            "offset": 0,
            "slot": "0",
            "type": "t_uint256"
          }
        ],
        "numberOfBytes": "32"
      },
      "t_uint256": {
        "encoding": "inplace",
        "label": "uint256",
        "numberOfBytes": "32"
      }
    }
  }
}